:100000000C9495000C94BD000C94BD000C94BD00A4
:100010000C94BD000C94BD000C94BD000C94BD006C
:100020000C94BD000C94BD000C94BD000C94BD005C
:100030000C94BD000C945E0B0C94BD000C94BD00A0
:100040000C94BD000C94BD000C94361D0C94BD00A6
:100050000C94F7210C94BD000C94BD000C94BD00D1
:100060000C94BD000C94BD000C94BD000C94BD001C
:100070000C9434220C94BD000C94BD000021242764
:100080002A002225282B0020232629020202020210
:10009000020202040404040404040403030303032B
:1000A0000303030101010101010101010204081020
:1000B0002040800102040810204080010204081042
:1000C000204080804020100804020100000001024E
:1000D000000000000000000403070600000000000C
:1000E0000000000000000000000000494E46494E9C
:1000F0004954594E414ECDCCCC3D0AD7233C17B77D
:10010000D13877CC2B329595E6241FB14F0A0000E9
:1001100020410000C84200401C4620BCBE4CCA1B07
:100120000E5AAEC59D74760E221F11241FBECFEF4E
:10013000D0E1DEBFCDBF12E0A0E0B1E0E4E4F1E544
:1001400002C005900D92AC3AB107D9F718E0ACEABD
:10015000B2E001C01D92AE3BB107E1F711E0CAE287
:10016000D1E004C02297FE010E946825C632D10763
:10017000C9F70E942F1D0C94A0280C9400002F9208
:100180003F924F925F926F927F928F929F92AF9227
:10019000BF92CF92DF92EF92FF920F931F93DF9364
:1001A000CF93CDB7DEB72E970FB6F894DEBF0FBE54
:1001B000CDBF9E878D878B017A01FB0160817181A4
:1001C00082819381FA0120813181428153810E9491
:1001D00029245B016C01F801648175818681978116
:1001E000F70124813581468157810E9429243B01F2
:1001F0004C01F8016085718582859385F701208522
:100200003185428553850E9429241B012C01F80168
:100210006485758586859785F701248535854685AE
:1002200057850E94292469877A878B879C87F801E4
:100230006089718982899389F7012089318942898E
:1002400053890E9429247B018C01C601B50120E05D
:1002500030E040E050E00E94252488234CF0C601A5
:10026000B50120E030E040E05FE30E94722208C068
:10027000C601B50120E030E040E05FE30E9471225A
:100280000E94422369837A838B839C83C401B301D8
:1002900020E030E040E050E00E94252488234CF02C
:1002A000C401B30120E030E040E05FE30E9472222D
:1002B00008C0C401B30120E030E040E05FE30E94E9
:1002C00071220E9442236D837E838F839887C201AF
:1002D000B10120E030E040E050E00E942524882376
:1002E0004CF0C201B10120E030E040E05FE30E9449
:1002F000722208C0C201B10120E030E040E05FE3BB
:100300000E9471220E9442233B014C0169857A853B
:100310008B859C8520E030E040E050E00E94252461
:1003200088235CF069857A858B859C8520E030E0A8
:1003300040E05FE30E9472220AC069857A858B855E
:100340009C8520E030E040E05FE30E9471220E9443
:1003500042235B016C01C801B70120E030E040E0BE
:1003600050E00E94252488234CF0C801B70120E00A
:1003700030E040E05FE30E94722208C0C801B7018C
:1003800020E030E040E05FE30E9471220E944223BF
:1003900029813A814B815C81ED85FE852083318303
:1003A000428353832D813E814F8158852483358339
:1003B000468357836086718682869386A486B58637
:1003C000C686D786608B718B828B938BCF012E96DE
:1003D0000FB6F894DEBF0FBECDBFCF91DF911F9156
:1003E0000F91FF90EF90DF90CF90BF90AF909F90D4
:1003F0008F907F906F905F904F903F902F900895D7
:10040000882321F4809181008B7F29C0813049F4B9
:10041000809181008B7F8093810080918100826038
:1004200015C0823049F4809181008B7F80938100D8
:1004300080918100826018C0833071F480918100C6
:10044000846080938100809181008D7F8093810002
:10045000809181008E7F0DC08091810084608093A7
:100460008100809181008D7F809381008091810047
:100470008160809381000895E0E8F0E01082A1E8B7
:10048000B0E01C921092820010926F008C918F7ECF
:100490008C938C9188608C9380818D7F8083808108
:1004A0008E7F808380818F77808380818F7B808324
:1004B00080818F7D808380818F7E808384E00E9415
:1004C00000028FEF9FEF909389008093880008953A
:1004D000FC0180819181A281B381803020E092076C
:1004E00021E0A20720E0B2070CF441C0893F2FEFC2
:1004F000920727E0A20720E0B20744F453E0B59545
:10050000A795979587955A95D1F731C0813C2FEFE4
:1005100092072FE3A20720E0B20744F446E0B59526
:10052000A795979587954A95D1F721C081302FEFF0
:1005300092072FEFA20720E0B2073CF4892F9A2FF1
:10054000AB2FBB27A7FDBA9512C081302CEF9207C5
:100550002FEFA20723E0B2071CF0EFEFFFEF08C078
:100560002AE0B595A795979587952A95D1F7FC012F
:10057000CF010895EF92FF920F931F93DF93CF93D4
:1005800000D000D0CDB7DEB77B018C0164E0EE0C6B
:10059000FF1C001F111F6A95D1F7E982FA820B83B5
:1005A0001C83CE0101960E9468029093890080937B
:1005B000880080E0E81680E0F80681E0080780E027
:1005C000180714F480E022C089EFE8168FEFF806D0
:1005D00087E0080780E0180714F481E017C081EC79
:1005E000E8168FEFF8068FE3080780E0180714F489
:1005F00082E00CC081E0E8168FEFF8068FEF080765
:1006000080E0180714F084E001C083E00E9400023B
:100610000F900F900F900F90CF91DF911F910F913E
:10062000FF90EF9008952F923F924F925F926F92BA
:100630007F928F929F92AF92BF92CF92DF92EF9272
:10064000FF920F931F93DF93CF9300D00F92CDB7FC
:10065000DEB7882309F08AC08091AE02882309F4AE
:1006600085C01092AE02E091AF02F091B00280819D
:1006700089832090AC023090AD020FEA12E00F2E79
:10068000FDE94F2EF1E35F2EFFE76F2EF3E47F2E9F
:10069000F02D0F2EF0E08F2EF0E09F2EF0E8AF2E21
:1006A000FFE3BF2EF02D0F2EF3E8CF2EF0ECDF2E60
:1006B000F0E2EF2EF1E4FF2EF02DD8010D90BC9169
:1006C000A02DBB83AA83E981EC93EE23F9F0119668
:1006D000CD92DD92ED92FC921497FD01C582D682F7
:1006E000E782F0868CEE91E4A9E4B4E481879287F6
:1006F000A387B487F10186819781A085B185EA81BE
:10070000FB8185879687A787B08B25C0EA81FB810F
:1007100041825282638274824582568267827086E9
:1007200086E89FEBAFE9B6E481879287A387B48719
:10073000D10116966D917D918D919C91199723E32E
:1007400033E34BEC51E40E942924EA81FB81658765
:1007500076878787908B818A928AA38AB48A0E5F74
:100760001F4FB2E0073B1B0709F0A7CF0F900F9078
:100770000F90CF91DF911F910F91FF90EF90DF903D
:10078000CF90BF90AF909F908F907F906F905F9031
:100790004F903F902F900895DF93CF93CDB7DEB762
:1007A000C456D0400FB6F894DEBF0FBECDBFDE01F9
:1007B0001196E0E0F1E088E001900D928150E1F7C0
:1007C000FE0139968CE5DF011D928A95E9F760916B
:1007D000B5037091B6038091B7039091B8036F5F32
:1007E0007F4F8F4F9F4FAE01485F5F4F2AE030E051
:1007F0000E9422288EEA97E00E94371F8EEA97E037
:10080000BE016F5F7F4F0E947A1FCC59DF4F0FB63A
:10081000F894DEBF0FBECDBFCF91DF910895AF92A8
:10082000BF92CF92DF92EF92FF920F931F93DF93CD
:10083000CF9300D0CDB7DEB78C017B016A0159019F
:10084000BE016F5F7F4F4AE050E00E94CC262981B5
:100850003A81201B310B121613066CF4F7016083EA
:10086000718382839383F601808191818A299B29F8
:100870009183808305C0F701108211821282138256
:10088000C9010F900F90CF91DF911F910F91FF90B1
:10089000EF90DF90CF90BF90AF900895AF92BF924E
:1008A000CF92DF92EF92FF920F931F93DF93CF933C
:1008B00000D0CDB7DEB78C017B016A015901BE01C2
:1008C0006F5F7F4F4AE050E00E94CC2629813A8139
:1008D000201B310B121613065CF4F7017183608341
:1008E000F601808191818A299B299183808303C0AD
:1008F000F70111821082C9010F900F90CF91DF9103
:100900001F910F91FF90EF90DF90CF90BF90AF902D
:100910000895AF92BF92CF92DF92EF92FF920F9322
:100920001F93DF93CF9300D0CDB7DEB78C017B014F
:100930006A015901BE016F5F7F4F0E946C252981BA
:100940003A81201B310B121613066CF4F7016083F9
:10095000718382839383F601808191818A299B2907
:100960009183808309C080E090E0A0E0B0E0F701CF
:1009700080839183A283B383C9010F900F90CF919D
:10098000DF911F910F91FF90EF90DF90CF90BF907C
:10099000AF9008952F923F924F925F926F927F9205
:1009A0008F929F92AF92BF92CF92DF92EF92FF927F
:1009B0000F931F93DF93CF93CDB7DEB768970FB632
:1009C000F894DEBF0FBECDBF8B015E8B4D8BFC015B
:1009D000119211926F017C019C012C5F3F4F3C8B67
:1009E0002B8BFC013696FA8BE98B9C01285D3F4FDF
:1009F000388B2F87FC013896FE87ED879C01245F9A
:100A00003F4F3C872B87FC017096FA87E9879C0152
:100A10002C5E3F4F38872F83FC017C96FE83ED834D
:100A20009C01205E3F4F3C832B83FC01B496FA83EC
:100A3000E9836CE2262E312C280E391E50E3452E18
:100A4000512C480E591E48E1642E712C680E791EF7
:100A500036E3832E912C880E991E24E3A22EB12C0E
:100A6000A80EB91E188E1F8AEDC0EF89F88DE00F11
:100A7000F11FE081E03509F45DC0E135DCF4E934D3
:100A800009F484C0EA3474F4E63409F495C0E73418
:100A900034F4EA3209F4C4C0E53409F5A9C0E734F6
:100AA000F1F420C0ED3441F1EE3409F4ADC0EA3484
:100AB000B1F477C0E43559F1E5354CF4E23509F489
:100AC00086C08F89988D0196E33564F58AC0E93533
:100AD00009F446C0EA3509F44EC0E835B1F180E0CA
:100AE00090E0A9C08F89988D0196800F911FB60163
:100AF000A70121E030E09DC08F89988D0196800F7D
:100B0000911F6B897C89A70122E030E092C08F8918
:100B1000988D0196800F911F69897A89A70120E03D
:100B200030E487C0800F911F6F857889A70120E08E
:100B300034E067C08F89988D0196800F911F6D8575
:100B40007E85A70124E030E05CC08F89988D0196F6
:100B5000800F911F6B857C85A70128E030E051C094
:100B60008F89988D0196800F911F69857A85A701DD
:100B700020E130E046C08F89988D0196800F911F4B
:100B80006F817885A70120E230E03BC08F89988D86
:100B90000196800F911F6D817E81A70120E430E0D6
:100BA00030C08F89988D0196800F911F6B817C8159
:100BB000A70120E030E825C08F89988D0196800F2D
:100BC000911F69817A81A70120E032E01AC08F89E4
:100BD000988D0196800F911FB101A70120E030E1AF
:100BE00010C0800F911FB201A70120E038E009C0BA
:100BF0008F89988D0196800F911FB301A70120E086
:100C000030E20E94890417C08F89988D0196800F69
:100C1000911FB401A70120E830E00E940F040BC02F
:100C20008F89988D0196800F911FB501A70120E053
:100C300031E00E944E0401962F89388D280F391F0C
:100C4000388F2F8B8F89988DED89FE898E179F079E
:100C50000CF40BCF68960FB6F894DEBF0FBECDBF75
:100C6000CF91DF911F910F91FF90EF90DF90CF9088
:100C7000BF90AF909F908F907F906F905F904F90BC
:100C80003F902F9008958DE161E00E948B1E0895A2
:100C9000FC01E655FF4F108233971082E75AF0406F
:100CA000CF010E9443060895CF93DF93EC01C7590B
:100CB000DF4F88819981AA81BB81C956D0400097B6
:100CC000A105B10521F088E160E00E948B1EC359A7
:100CD000DF4F88819981AA81BB81CD56D040009792
:100CE000A105B10521F088E160E00E948B1ECF587C
:100CF000DF4F88819981AA81BB81C157D04000977D
:100D0000A105B10521F08DE160E00E948B1ECB585A
:100D1000DF4F88819981AA81BB810097A105B10528
:100D200071F0E091AE02F0E0EE0FFF1FE455FD4FD1
:100D30000190F081E02D868960E00E948B1EDF919A
:100D4000CF9108951F93CF93DF93EC01C955DF4FE7
:100D50008881C75AD040882369F5CB56DF4F699107
:100D600011E082E10E948B1E699186E10E948B1E38
:100D700069918CE10E948B1E6881C859D040E09136
:100D8000AE02F0E0EE0FFF1FE455FD4F0190F08141
:100D9000E02D83890E948B1ECE010E94540668EECE
:100DA00073E080E090E00E94BA02C655DF4F1883DE
:100DB000FE011293DF91CF911F9108958091B902A6
:100DC00091E089278093B902882319F080E061E0DF
:100DD00002C080E060E00E948B1E0895CF93DF93F5
:100DE000C0E0D0E08DE00E94D61E892B11F480E097
:100DF00005C02196C93CD105A9F781E0DF91CF91CB
:100E00000895CF93DF93C0E0D0E08DE00E94D61E1E
:100E1000019711F480E005C02196C93CD105A9F7DE
:100E200081E0DF91CF9108952F923F924F925F9290
:100E30006F927F928F929F92AF92BF92CF92DF92EA
:100E4000EF92FF920F931F93DF93CF93CDB7DEB74F
:100E5000AC970FB6F894DEBF0FBECDBF86559F4F3F
:100E6000DC018C91AA5AB040BCA7ABA7882309F437
:100E70000CC4AB56BF4FBA83A983EBA5FCA5EB5AB4
:100E8000FF4FFC83EB832BA53CA52F5B3F4F3E839D
:100E90002D838BA59CA586569F4F98878F83ABA5E6
:100EA000BCA5AA56BF4FBA87A987EBA5FCA5E75AF0
:100EB000FF4FFC87EB872BA53CA52B5B3F4F3E8765
:100EC0002D878BA59CA585569F4F988B8F87ABA5AB
:100ED000BCA5A956BF4FBA8BA98BEBA5FCA5E35ABD
:100EE000FF4FFC8BEB8B2BA53CA5275B3F4F3E8B2D
:100EF0002D8B8BA59CA584569F4F988F8F8BABA570
:100F0000BCA5A856BF4FBA8FA98FEBA5FCA5EF597A
:100F1000FF4FFC8FEB8F2DE4222E312C2BA53CA50F
:100F2000220E331E23563F4F3E8F2D8F8BA59CA53F
:100F300087569F4F98A38F8FABA5BCA5AB59BF4FCA
:100F4000BAA3A9A391E5492E512CEBA5FCA54E0E01
:100F50005F1EE256FF4FFCA3EBA388EA682E712CBC
:100F60002BA53CA5620E731E27593F4F3EA32DA310
:100F70008BA59CA583589F4F98A78FA30FE9802E20
:100F8000912CABA5BCA58A0E9B1EA359BF4FBAA737
:100F9000A9A7E981FA816081AB81BC812D913D9146
:100FA0004D915C91ED81FE8180819181A281B3811F
:100FB000281739074A075B0749F0662309F053C32E
:100FC00084E10E94D61E892B09F04DC380E0AF81D9
:100FD000B8858C93E985FA856081AB85BC852D91B8
:100FE0003D914D915C91ED85FE8580819181A2813D
:100FF000B381281739074A075B0749F0662309F0D0
:1010000034C389E10E94D61E892B09F02EC380E0EB
:10101000AF85B8898C93E989FA896081AB89BC89ED
:101020002D913D914D915C91ED89FE898081918159
:10103000A281B381281739074A075B0749F0662365
:1010400009F015C38EE10E94D61E892B09F00FC34B
:1010500080E0AF89B88D8C93E98DFA8D808160E056
:10106000AB8DBC8D2D913D914D915C91F1018081B5
:101070009181A281B381281739074A075B0709F0DC
:1010800061E0AD8DBE8D6C93EF8DF8A1808160E045
:10109000A9A1BAA12D913D914D915C91F201808160
:1010A0009181A281B381281739074A075B0709F0AC
:1010B00061E0ABA1BCA16C93F3011082AF81B88554
:1010C0008C91882309F453C0EDA1FEA18081918108
:1010D000A281B381EFA1F8A52081318142815381A2
:1010E000820F931FA41FB51F80839183A283B383B4
:1010F000181619061A061B06D4F58FE061E00E9447
:101100008B1E8FE060E00E948B1E81E0D3018C93E8
:10111000F4012081318142815381EFA1F8A58081C2
:101120009181A281B381821B930BA40BB50B8083A9
:101130009183A283B383A981BA818C91882351F0D2
:10114000ED81FE8180819181A281B3810196A11DF3
:10115000B11D09C0ED81FE8180819181A281B381A1
:101160000197A109B10980839183A283B383AF85DD
:10117000B8898C91882309F455C00BA51CA50F577D
:101180001F4FE9A5FAA580819181A281B381F80161
:101190002081318142815381820F931FA41FB51F8B
:1011A00080839183A283B383181619061A061B063F
:1011B000CCF587E161E00E948B1E87E160E00E9430
:1011C0008B1E81E0D3018C93F40120813181428117
:1011D0005381F80180819181A281B381821B930B9D
:1011E000A40BB50B80839183A283B383A985BA85B1
:1011F0008C91882351F0ED85FE8580819181A281BB
:10120000B3810196A11DB11D09C0ED85FE858081C8
:101210009181A281B3810197A109B1098083918352
:10122000A283B383AF89B88D8C91882309F45BC006
:101230000BA51CA50B571F4FEBA5FCA5EF58FF4FA7
:1012400080819181A281B381E157F040FCA7EBA797
:10125000F8012081318142815381820F931FA41FA5
:10126000B51F80839183A283B383181619061A06CB
:101270001B06CCF58BE161E00E948B1E8BE160E0E8
:101280000E948B1E81E0D3018C93F4012081318177
:1012900042815381F80180819181A281B381821BB7
:1012A000930BA40BB50B80839183A283B383A9898D
:1012B000BA898C91882351F0ED89FE8980819181D2
:1012C000A281B3810196A11DB11D09C0ED89FE89DE
:1012D00080819181A281B3810197A109B1098083A5
:1012E0009183A283B383AD8DBE8D8C91882309F445
:1012F00067C019E8E12EF12CEBA5FCA5EE0EFF1E50
:10130000EB58FF4F80819181A281B381E557F04076
:10131000FCA7EBA7F7012081318142815381820F25
:10132000931FA41FB51F80839183A283B3831816D4
:1013300019061A061B060CF043C0E091AE02F0E05D
:10134000EE0FFF1FE455FD4F00811181D801529629
:101350008C9161E00E948B1EF801828960E00E94FE
:101360008B1E81E0D3018C93F40120813181428175
:101370005381F70180819181A281B381821B930BFC
:10138000A40BB50B80839183A283B383A98DBA8DFF
:101390008C91882349F0F10180819181A281B381F0
:1013A0000196A11DB11D08C0F10180819181A2812A
:1013B000B3810197A109B10980839183A283B3838B
:1013C000ABA1BCA18C91882309F45FC0EBA5FCA55F
:1013D000E357FF4F2BA53CA527583F4FD9012D912F
:1013E0003D914D915C911397A957B040BCA7ABA715
:1013F00080819181A281B381280F391F4A1F5B1F11
:101400002083318342835383121613061406150674
:101410009CF5D401ED90FD900D911C912E193F0982
:10142000400B510B2083318342835383EF8DF8A10E
:101430008081882349F0F20180819181A281B3816A
:101440000196A11DB11D08C0F20180819181A28188
:10145000B3810197A109B10980839183A283B383EA
:101460002BA53CA527553F4F81E0D9018C93A95A64
:10147000B040BCA7ABA709C0EBA5FCA5E755FF4F43
:101480001082E95AF040FCA7EBA7D3018C91882386
:1014900009F49AC0EBA5FCA5E755FF4F8081E95AF6
:1014A000F040FCA7EBA7882309F48EC0EF56FF4F4E
:1014B000FCA7EBA7D2016D917D918D919C9120812C
:1014C0003181428153810E94E324EBA5FCA57296F1
:1014D000DF016083718382839383A35AB040BCA7EA
:1014E000ABA70E9475237B018C01EBA5FCA5FD96A3
:1014F000608171818281938120EC31EE44E65CE46D
:101500000E9429245B016C01F40160817181828158
:1015100093810E9475239B01AC01C801B7010E9411
:1015200029249B01AC01C601B5010E94DA2220E00A
:1015300030E040E050E00E9425248823D4F0D4011C
:101540006D917D918D919C910E9475239B01AC01C1
:10155000C801B7010E9429249B01AC01C601B50155
:101560000E94DA2220E030E040E05FE30E94722235
:1015700019C0F40160817181828193810E94752379
:101580009B01AC01C801B7010E9429249B01AC0159
:10159000C601B5010E94DA2220E030E040E05FE3BE
:1015A0000E9471220E9442232BA53CA52D553F4F3E
:1015B000D9016D937D938D939C931397A35AB0405B
:1015C000BCA7ABA70E94BA02EBA5FCA5E755FF4F4D
:1015D0001082E95AF040FCA7EBA7D3018C91882335
:1015E00009F047C0EBA1FCA18081882309F441C028
:1015F000D0CC2BA53CA525563F4FD9018C91AB599A
:10160000B040BCA7ABA78823D1F4A456BF4F8C91A0
:10161000AC59B040BCA7ABA7882389F4A356BF4FF1
:101620008C91AD59B040BCA7ABA7882341F4A2561A
:10163000BF4F8C91AE59B040BCA7ABA701C081E0B1
:10164000EBA5FCA5E655FF4F808380818823E9F454
:101650008BA59CA50E94430668EE73E080E090E0B5
:101660000E94BA0212C081E0B2CC81E0D1CC81E00C
:10167000F0CCEBA5FCA5E656FF4F8081EA59F0407F
:10168000FCA7EBA78823D9F6B4CFAC960FB6F89495
:10169000DEBF0FBECDBFCF91DF911F910F91FF90A5
:1016A000EF90DF90CF90BF90AF909F908F907F9002
:1016B0006F905F904F903F902F9008951F920F92E0
:1016C0000FB60F9211241F932F933F934F935F9365
:1016D0006F937F938F939F93AF93BF93EF93FF93FA
:1016E0008091D002882309F05DC081E08093D00210
:1016F00078948091BA029091BB0201969093BB02BC
:101700008093BA028058924031F40E94DE06109213
:10171000BB021092BA02E091B802F0E0EE0FFF1F98
:10172000E155FD4F0190F081E02DE655FF4F80819E
:10173000882361F0E091B802F0E0EE0FFF1FE15561
:10174000FD4F808191810E94140722C09091B802C0
:101750008091B7029817F9F4E091B802F0E0EE0F2B
:10176000FF1FE155FD4F0190F081E02DE655FF4F41
:101770008081882381F40CC0E12FF0E0EE0FFF1F81
:10178000E155FD4F808191810E94A2061093B8021D
:101790001092D00207C01091B8021F5F143060F39E
:1017A00010E0EACFFF91EF91BF91AF919F918F91A0
:1017B0007F916F915F914F913F912F911F910F906A
:1017C0000FBE0F901F901895FF920F931F938C01DF
:1017D00080E090E0A0E0B0E0F80181839283A383F1
:1017E000B48385839683A783B08781879287A387F5
:1017F000B48785879687A787B08B818B928BA38BC5
:10180000B48B81A792A7A3A7B4A785A796A7A7A7DC
:10181000B0AB81AB92ABA3ABB4AB85AB96ABA7AB94
:10182000B0AF81AF92AFA3AFB4AF06551F4FF80171
:10183000108203501040F801108202511040FF2422
:10184000F394F801F192F192F192F1928F01F0820A
:1018500009591040F801858B968BA78BB08F818F2B
:10186000928FA38FB48F858F968FA78FB0A381A3FC
:1018700092A3A3A3B4A380E090E0AAE7B4E485A375
:1018800096A3A7A3B0A78FE061E00E946D1E82E13E
:1018900061E00E946D1E87E161E00E946D1E86E19D
:1018A00061E00E946D1E8BE161E00E946D1E8CE183
:1018B00061E00E946D1E88E161E00E946D1E88E17A
:1018C00061E00E946D1E8DE161E00E946D1EC80105
:1018D0000E94430684E160E00E946D1E89E160E0A1
:1018E0000E946D1E8EE160E00E946D1EF801F08284
:1018F00083E890ECA0E2B1E481839283A383B48374
:1019000085839683A783B0878CEE91E4A9E4B4E441
:1019100081879287A387B487E091AE02F0E0EE0F53
:10192000FF1FE455FD4F0190F081E02D86819781E6
:10193000A085B185F80185879687A787B08B80E061
:1019400090E0A0E8BFE3818B928BA38BB48B1F91B7
:101950000F91FF900895EF92FF920F931F93CF93F3
:10196000DF938DE060E00E946D1EC0E0D0E011E0EA
:10197000E12EF12C00E010E08EE060E00E948B1E72
:1019800082E390E00E94D01D8EE061E00E948B1EF9
:1019900082E390E00E94D01D8DE00E94D61E019748
:1019A00011F4CE29DF29EE0CFF1C0F5F1F4F003111
:1019B000110511F7CE01DF91CF911F910F91FF908B
:1019C000EF9008950F931F93CF93DF938C018EE0D8
:1019D00061E00E946D1E8DE060E00E946D1E8EE051
:1019E00060E00E948B1EC0E0D0E08DE00E94D61E19
:1019F000019741F4219689E0C53CD807B1F72FEC57
:101A000039E024C08DE060E00E946D1E8EE061E050
:101A10000E948B1EC8010E940107813019F425EC39
:101A200037E014C08EE060E00E948B1E82E390E0FD
:101A30000E94D01D8EE061E00E948B1E82E390E048
:101A40000E94D01DC8010E94AB0C9C01C901DF910E
:101A5000CF911F910F910895CF92DF92EF92FF9255
:101A60000F931F93CF93DF937C016B018DE060E0B8
:101A70000E946D1E8EE060E00E948B1EC0E0D0E0F0
:101A80008DE00E94D61E019731F4219682E0C9357F
:101A9000D807B1F7A3C08EE061E00E948B1E82E3FD
:101AA00090E00E94D01DC7010E940107813009F417
:101AB00095C08EE060E00E948B1E8DE061E00E9488
:101AC0006D1E8DE060E00E948B1E82E390E00E941C
:101AD000D01D8EE061E00E948B1E82E390E00E94A8
:101AE000D01D01E010E0C0E0D0E08EE060E00E9498
:101AF0008B1EC8018C219D21892B29F08DE060E08F
:101B00000E946D1E08C08DE061E00E946D1E8DE098
:101B100060E00E948B1E82E390E00E94D01D8EE068
:101B200061E00E948B1E82E390E00E94D01D000FB6
:101B3000111F2196C031D105C1F68EE060E00E94F0
:101B40008B1E8DE060E00E946D1E82E390E00E949B
:101B5000D01D8EE061E00E948B1EC7010E94EE0640
:101B60008130E1F18EE060E00E948B1E82E390E024
:101B70000E94D01D8EE061E00E948B1EC7010E9472
:101B80000107813059F18EE060E00E948B1E82E3F4
:101B900090E00E94D01D8EE061E00E948B1EC70184
:101BA0000E94EE068130D1F08EE060E00E948B1E34
:101BB00082E390E00E94D01D8EE061E00E948B1EC7
:101BC000C7010E940107813049F0C7010E94AB0C98
:101BD00020E08C159D0519F421E001C020E0822F42
:101BE000DF91CF911F910F91FF90EF90DF90CF90F9
:101BF00008950F931F93CF93DF938C01EB01F8941B
:101C0000C801BE010E942C0D813031F47894DF911F
:101C1000CF911F910F9108957894F1CF8F929F9259
:101C2000AF92BF92CF92DF92EF920F934C01862F2B
:101C3000F401628B438B268B048BE58AA682B782E4
:101C4000C086D186128613861486158661E00E94AE
:101C50006D1EF401838961E00E946D1EF401868986
:101C600061E00E946D1EF401848961E00E946D1E96
:101C7000F401858960E00E946D1EF401838961E0B2
:101C80000E948B1EF401828960E00E948B1EF40189
:101C900017861686118A108A848960E070E00E9497
:101CA000181E0F91EF90DF90CF90BF90AF909F9054
:101CB0008F9008950F931F938C01862FF8016287F0
:101CC0004387168217821086118661E00E946D1E7E
:101CD000F801838560E00E946D1EF801828560E056
:101CE00070E00E94181E1F910F910895AF92BF924D
:101CF000CF92DF92EF920F9389EB93E06CE041E19A
:101D000023E00BE0EE240F2EF0E0AF2EF0E0BF2E2C
:101D1000F0E6CF2EF0E4DF2EF02D0E940E0E80EDC7
:101D200093E06BE04AE00E945A0E1092F40484EDB6
:101D30009EEF9093DD048093DC049093DF04809306
:101D4000DE041092DC038FEF9FEFAFEFBFEF8093C5
:101D5000F0049093F104A093F204B093F304109272
:101D6000F50486EF94E00E94E40B81EA95E00E947E
:101D7000E40B8CE496E00E94E40B87EF96E00E946F
:101D8000E40B80E090E0A0E0B0E08093BC02909390
:101D9000BD02A093BE02B093BF028093C002909395
:101DA000C102A093C202B093C3028093C402909375
:101DB000C502A093C602B093C7028093C802909355
:101DC000C902A093CA02B093CB028093CC02909335
:101DD000CD02A093CE02B093CF0280935303909391
:101DE0005403A0935503B0935603809357039093E5
:101DF0005803A0935903B0935A0380935B039093C5
:101E00005C03A0935D03B0935E0380935F039093A4
:101E10006003A0936103B093620380936303909384
:101E20006403A0936503B093660380936703909364
:101E30006803A0936903B0936A0380936B03909344
:101E40006C03A0936D03B0936E0380936F03909324
:101E50007003A0937103B093720380937303909304
:101E60007403A0937503B0937603809377039093E4
:101E70007803A0937903B0937A030F91EF90DF90EA
:101E8000CF90BF90AF900895CF92DF92EF92FF92E4
:101E90000F931F93CF93DF937C01FC01118210827B
:101EA0001582148213821282DD24CC24C394F7019C
:101EB00004811581C7010E94E20C9C01200F311F93
:101EC000F7013583248380819181019691838083FA
:101ED00006976CF1C90165E070E00E9402257583E8
:101EE00064838685978505976817790734F0FAE04B
:101EF000FD1558F1D394CC2415C0CC2099F0F701EE
:101F000082819381861797071CF4738362830AC0CA
:101F10008CED93E064E671E00E941B2881E08093E1
:101F2000F40413C0F7011582148211821082C0E0FC
:101F3000D0E061E070E080E090E00E94A61D219674
:101F4000F3E0C83EDF07A9F7B2CFDF91CF911F9131
:101F50000F91FF90EF90DF90CF9008952F923F92D6
:101F60004F925F926F927F928F929F92AF92BF92A9
:101F7000CF92DF92EF92FF920F931F93DF93CF9355
:101F8000CDB7DEB7A4970FB6F894DEBF0FBECDBFB6
:101F90002C01362E272EDC015596862F972F9C017B
:101FA000F90184E101900D928150E1F727EA30E0D8
:101FB000420E531ED2011C92E9E5FFEF4E0E5F1E4A
:101FC000D20155966D917D918D919C91589720915C
:101FD000BC023091BD024091BE025091BF020E94EE
:101FE00071225B016C01E894D7F8F201618D728D6A
:101FF000838D948D2091C0023091C1024091C20224
:102000005091C3020E9471227B018C01E89417F960
:10201000D2015D966D917D918D919C9190972091CB
:10202000C4023091C5024091C6025091C7020E947D
:1020300071223B014C01E89497F8F20161A172A171
:1020400083A194A12091C8023091C9024091CA0293
:102050005091CB020E9471229B01AC015F772D8FC2
:102060003E8F4F8F58A3D20195966D917D918D91A2
:102070009C9198972091CC023091CD024091CE0254
:102080005091CF020E9471229B01AC015F7729A37E
:102090003AA34BA35CA3D201D9962D933D934D93C4
:1020A0005C93DC972D8D3E8D4F8D58A1D5962D9349
:1020B0003D934D935C93D897F20161AA72AA83AACB
:1020C00094AA9D96ED92FD920D931C93D097A1A694
:1020D000B2A6C3A6D4A6C601B501A60195010E9469
:1020E00029245B016C01C801B701A80197010E9476
:1020F00029249B01AC01C601B5010E9472227B011B
:102100008C01C401B301A40193010E9429249B0105
:10211000AC01C801B7010E9472228201035C1F4F0B
:10212000D8016D937D938D939C93139727E137EBA3
:1021300041ED58E30E94D62288236CF46D8D7E8D8C
:102140008F8D98A19B01AC010E942924F801608326
:102150007183828393838201035C1F4FD8016D9149
:102160007D918D919C9127E137EB41ED58E30E94E1
:10217000D62288236CF469A17AA18BA19CA19B0132
:10218000AC010E942924F8016083718382839383C8
:102190008201035C1F4FD8016D917D918D919C91BF
:1021A0000E949024F801608371838283938372017B
:1021B0000894E11CF11C21E430E0420E531E8E0114
:1021C0000F5F1F4FC801B7014CEB52E00E94BF00E8
:1021D000D2014FEB5FEF440E551EF80184E10190F0
:1021E0000D928150E1F785E190E0480E591E8E0175
:1021F0000F5F1F4FC801B701A2010E94BF00A0E4FA
:10220000B0E04A0E5B1ED201EBEAFFEF4E0E5F1EFE
:10221000F80184E101900D928150E1F7F201EB5A4F
:10222000FF4F21E430E0420E531E80819181A28154
:10223000B3818D8B9E8BAF8BB88FF20180819181A2
:10224000A281B3812FEB3FEF420E531E2D893E89B1
:102250004F89588D281B390B4A0B5B0B2D8B3E8BFE
:102260004F8B588F57FF0BC0509540953095219557
:102270003F4F4F4F5F4F2D8B3E8B4F8B588FF2014F
:10228000E75AFF4F45E450E0440E551EE080F180D0
:1022900002811381F20180819181A281B3812BEBB4
:1022A0003FEF420E531EE81AF90A0A0B1B0B17FFE9
:1022B00008C010950095F094E094E11CF11C011DFC
:1022C000111DF201E35AFF4F49E450E0440E551E40
:1022D00080819181A281B381898F9A8FAB8FBC8FCE
:1022E000F20180819181A281B38127EB3FEF420E01
:1022F000531E298D3A8D4B8D5C8D281B390B4A0B53
:102300005B0B298F3A8F4B8F5C8F57FF0BC050951B
:102310004095309521953F4F4F4F5F4F298F3A8F12
:102320004B8F5C8FF201EF59FF4F4DE450E0440EAC
:10233000551E80809180A280B380F20180819181BE
:10234000A281B38123EB3FEF420E531E881A990AF4
:10235000AA0ABB0AB7FE08C0B094A09490948094D7
:10236000811C911CA11CB11CB20167587F4FF20166
:10237000EB59FF4F41E550E0440E551E208131815D
:1023800042815381F20180819181A281B381EFEA80
:10239000FFEF4E0E5F1E281B390B4A0B5B0B57FFDE
:1023A00007C050954095309521953F4F4F4F5F4F57
:1023B000DB012D933D934D935C931397E5E7F0E09C
:1023C0004E0E5F1ED2018D929D92AD92BC921397DC
:1023D000298D3A8D4B8D5C8D5E934E933E932E935B
:1023E000FD0112930293F292E292DF012D893E8960
:1023F0004F89588D5E934E933E932E932D01E7E9BE
:10240000FFEF4E0E5F1EDA01C9012E153F05400792
:10241000510714F4D801C701F201E156FF4F808340
:102420009183A283B383E080F1800281138121E74D
:1024300030E0420E531ED2012D913D914D915C91A1
:102440008FE89FEF480E591E2E153F054007510794
:1024500024F42081318142815381F201E156FF4F02
:102460002083318342835383E080F1800281138192
:10247000A5E7B0E04A0E5B1ED2012D913D914D9132
:102480005C918BE89FEF480E591E2E153F054007C3
:10249000510724F42081318142815381F201E156B8
:1024A000FF4F208331834283538380819181A281B6
:1024B000B3810097A105B10599F4A7EAB0E04A0EEF
:1024C0005B1E81E0F2018083ACEBB2E0232D322D64
:1024D000C901FC0184E101900D928150E1F7B7C17F
:1024E000B20167587F4FF201EB59FF4F21E530E011
:1024F000420E531E2081318142815381F20180813D
:102500009181A281B381EFEAFFEF4E0E5F1E281B7F
:10251000390B4A0B5B0B57FF07C050954095309520
:1025200021953F4F4F4F5F4FDB012D933D934D93CF
:102530005C93139721E9622E712C640C751C21E0C9
:1025400030E040E050E0D3012D933D934D935C93F8
:102550001397E9E7F0E04E0E5F1ED201ED90FD907B
:102560000D911C91E7E8FFEF4E0E5F1E9FE9C92E0B
:10257000D12CC40CD51CF60180819181A281B3813C
:102580008E159F05A007B1070CF07BC0208131811B
:1025900042815381C801B7010E94372549015A0180
:1025A000D3018D929D92AD92BC921397B3E08B169E
:1025B0009104A104B1040CF455C082010B591F4FC2
:1025C000F8016081718182819381A50194010E944B
:1025D000372569017A01D8012D933D934D935C9382
:1025E000139782010F5A1F4FF80160817181828118
:1025F0009381A50194010E943725C901DA01F801F0
:1026000080839183A283B383A7019601281B390B92
:102610004A0B5B0B57FF07C05095409530952195AD
:102620003F4F4F4F5F4F89E790E0480E591ED20150
:102630002D933D934D935C931397E7E8FFEF4E0E78
:102640005F1EF201E156FF4F80819181A281B3812B
:1026500082179307A407B507A4F42083318342832C
:1026600053830FC021E030E040E050E0D3012D93D0
:102670003D934D935C931397F601E082F1820283C0
:10268000138310E0D20155966D917D918D919C91AF
:1026900058972091BC023091BD024091BE025091EA
:1026A000BF020E94252488230CF011E0E5E9F0E048
:1026B0004E0E5F1ED2011C93EBE6FFEF4E0E5F1E27
:1026C00010E0D20159966D917D918D919C915C970E
:1026D0002091C0023091C1024091C2025091C302C8
:1026E0000E94252488230CF011E0E6E9F0E04E0E6C
:1026F0005F1ED2011C93EAE6FFEF4E0E5F1E10E054
:10270000D2015D966D917D918D919C9190972091D4
:10271000C4023091C5024091C6025091C7020E9486
:10272000252488230CF011E0E7E9F0E04E0E5F1E4F
:10273000D2011C93E9E6FFEF4E0E5F1E10E0D201BE
:1027400091966D917D918D919C9194972091C80265
:102750003091C9024091CA025091CB020E942524B7
:1027600088230CF011E0E8E9F0E04E0E5F1ED20184
:102770001C93E8E6FFEF4E0E5F1E10E0D201959627
:102780006D917D918D919C9198972091CC02309183
:10279000CD024091CE025091CF020E942524882381
:1027A0000CF011E0E9E9F0E04E0E5F1ED2011C933F
:1027B000E6E0F0E04E0E5F1ED2016D917D918D91AD
:1027C0009C91E1E6FFEF4E0E5F1E22E030E040E01C
:1027D00050E00E94372550954095309521953F4F08
:1027E0004F4F5F4FD201A358BF4F2C9311963C938C
:1027F000119712964C93129713965C931397F201CC
:10280000EF57FF4F208331834283538325E830E025
:10281000420E531E8D919D910D90BC91A02DF20101
:1028200081939193A193B19381939193A193B19348
:1028300080839183A283B383ACEBB2E0232D322D4E
:10284000C901FC0184E101900D928150E1F7A49649
:102850000FB6F894DEBF0FBECDBFCF91DF911F91B1
:102860000F91FF90EF90DF90CF90BF90AF909F902F
:102870008F907F906F905F904F903F902F90089532
:102880001F93CF93DF93EC0106C061E070E080E01E
:1028900090E00E94A61D8091B802882329F48091BF
:1028A000B702833059F4F1CF2091B7028091B8027A
:1028B00030E090E001972817390739F31091B702FB
:1028C0001F5F143008F010E0E12FF0E0EE0FFF1F63
:1028D000E155FD4F80819181BE010E94AE0F1093A2
:1028E000B702DF91CF911F910895CF93DF93EC0151
:1028F0009B01A7E6B3E0ECEBF2E084E101900D92DE
:102900008150E1F788819981AA81BB818093670317
:1029100090936803A0936903B0936A03F9018081DF
:102920009181A281B3818093770390937803A093E0
:102930007903B0937A0387E693E00E944014DF9115
:10294000CF910895CF93DF93EC019B01A7E6B3E00D
:10295000ECEBF2E084E101900D928150E1F7888187
:102960009981AA81BB8180936B0390936C03A093A0
:102970006D03B0936E03F90180819181A281B381CF
:102980008093770390937803A0937903B0937A03AD
:1029900087E693E00E944014DF91CF910895CF9392
:1029A000DF93EC019B01A7E6B3E0ECEBF2E084E1FE
:1029B00001900D928150E1F788819981AA81BB81B4
:1029C00080936F0390937003A0937103B09372038D
:1029D000F90180819181A281B381809377039093E3
:1029E0007803A0937903B0937A0387E693E00E947B
:1029F0004014DF91CF9108952F923F924F925F92B2
:102A00006F927F928F929F92AF92BF92CF92DF92FE
:102A1000EF92FF920F931F93DF93CF93CDB7DEB763
:102A2000C056D0400FB6F894DEBF0FBECDBF8C01AC
:102A3000AB01DC018C918F3209F4B9C680E090E0E3
:102A4000A0E0B0E08093530390935403A093550308
:102A5000B09356038093570390935803A093590360
:102A6000B0935A0380935B0390935C03A0935D0340
:102A7000B0935E0380935F0390936003A093610320
:102A8000B09362038093630390936403A093650300
:102A9000B09366038BE793E0B8010E94CA044091AB
:102AA0007B0350917C03CA01880F892F881F990BE3
:102AB00091958170952F917050FD03C0882309F482
:102AC00068C0981749F08091A20282FF4FC08EEA39
:102AD00097E06BEB71E048C0992309F45AC020E0FD
:102AE00080E002C02E278F5FF801E80FF11DE08122
:102AF000EA32C1F730E08091AF039091B0038217C2
:102B0000930749F08091A20282FF30C08EEA97E0DD
:102B100062E172E029C041FF07C080917F0390917C
:102B200080038E36910529F18091B5039091B6030B
:102B3000A091B703B091B8030196A11DB11D2091DA
:102B4000B1033091B2034091B3035091B4032817FD
:102B500039074A075B0769F08091A20282FF06C02D
:102B60008EEA97E062E372E00E947A1F0E94CC0333
:102B70001EC68091B1039091B203A091B303B091AE
:102B8000B4038093B5039093B603A093B703B093B7
:102B9000B80320917B0330917C03C901837090744A
:102BA000892B91F42115310579F08091A302909140
:102BB000A40297FD09C090937E0380937D0321605A
:102BC00030937C0320937B0380917B0380FF4DC473
:102BD00080917D0390917E039093A4028093A30241
:102BE000A3E5B3E0ECEBF2E084E101900D928150BB
:102BF000E1F78091A502882309F453C080917B03FB
:102C000083FF10C08091870390918803A09189036E
:102C1000B0918A038093530390935403A093550378
:102C2000B093560380917B0384FF10C080918B0387
:102C300090918C03A0918D03B0918E0380935703E4
:102C400090935803A0935903B0935A0380917B0348
:102C500085FF10C080918F0390919003A091910304
:102C6000B091920380935B0390935C03A0935D0308
:102C7000B0935E0380917B0390917C0395FF8BC0A2
:102C80008091930390919403A0919503B091960342
:102C900080935F0390936003A0936103B0936203FA
:102CA0007AC080917B0383FF1AC0609153037091B7
:102CB00054038091550390915603209187033091DE
:102CC00088034091890350918A030E947222609385
:102CD000530370935403809355039093560380914C
:102CE0007B0384FF1AC06091570370915803809151
:102CF000590390915A0320918B0330918C0340919A
:102D00008D0350918E030E9472226093570370933B
:102D100058038093590390935A0380917B0385FF56
:102D20001AC060915B0370915C0380915D03909188
:102D30005E0320918F033091900340919103509155
:102D400092030E94722260935B0370935C038093F2
:102D50005D0390935E0380917B0390917C0395FFCC
:102D60001AC060915F03709160038091610390913C
:102D70006203209193033091940340919503509105
:102D800096030E94722260935F03709360038093A6
:102D900061039093620380917B0390917C0391FF88
:102DA00010C080919F039091A003A091A103B091C6
:102DB000A2038093630390936403A0936503B0938D
:102DC000660380917D0390917E038130910539F1F6
:102DD0008C31910549F1892B09F01BC2E090630306
:102DE000F0906403009165031091660380E090E821
:102DF000ABE3B5E48093630390936403A09365030E
:102E0000B093660383E593E00E944014E09263036D
:102E1000F09264030093650310936603C8C483E5CE
:102E200093E00E944014C3C40F2EF0E06F2EF0E038
:102E30007F2EFAE78F2EF4E49F2EF02D6092CC02C5
:102E40007092CD028092CE029092CF026091BC022D
:102E50007091BD028091BE029091BF0220E030E0EF
:102E600040EA50E40E94712269837A838B839C83B9
:102E70000F2EF0E0EF2EF0E8FF2EFBE30F2FF5E42E
:102E80001F2FF02DED82FE820F831887CE01019651
:102E9000BE016B5F7F4F0E9475146091BC02709100
:102EA000BD028091BE029091BF0220E030E04AE76F
:102EB00053E40E94712269877A878B879C87ED860D
:102EC000FE860F87188BCE010996BE01635F7F4F88
:102ED0000E94751420E030E040E050E02093BC02F6
:102EE0003093BD024093BE025093BF026092CC0269
:102EF0007092CD028092CE029092CF0280E090E05C
:102F0000A0E8BFE3898B9A8BAB8BBC8B6D8A7E8AE2
:102F10008F8A988ECE014196BE016B5E7F4F0E94D4
:102F200075146091BC027091BD028091BE029091B7
:102F3000BF0220E030E040E251E40E947122698F3C
:102F40007A8F8B8F9C8F6D8E7E8E8F8E98A2CE0106
:102F50004996BE01635E7F4F0E94751420E030E009
:102F600040E050E02093BC023093BD024093BE028B
:102F70005093BF026091C0027091C1028091C20261
:102F80009091C30220E030E040EA50E40E947122B8
:102F900069A37AA38BA39CA3EDA2FEA20FA318A7FB
:102FA000CE018196BE016B5D7F4F0E94A21460919D
:102FB000C0027091C1028091C2029091C30220E0D0
:102FC00030E04AE753E40E94712269A77AA78BA7F1
:102FD0009CA7EDA6FEA60FA718ABCE018996BE0151
:102FE000635D7F4F0E94A21480E090E0A0E0B0E01B
:102FF0008093C0029093C102A093C202B093C30217
:103000006092CC027092CD028092CE029092CF025A
:1030100020E030E040E85FE329AB3AAB4BAB5CAB80
:103020006DAA7EAA8FAA98AECE01C196BE016B5C36
:103030007F4F0E94A2146091C0027091C1028091E2
:10304000C2029091C30220E030E040E251E40E94CD
:10305000712269AF7AAF8BAF9CAFFE01FD966082A3
:10306000718282829382CE01C996BF010E94A2140E
:1030700080E090E0A0E0B0E08093C0029093C102B5
:10308000A093C202B093C3020F2EF0E0AF2EF0E087
:10309000BF2EF0EACF2EF1E4DF2EF02DA092CC026D
:1030A000B092CD02C092CE02D092CF0251E4452E12
:1030B000512C4C0E5D1E6091C4027091C50280912E
:1030C000C6029091C70220E030E040E05FE30E943A
:1030D0007122D2016D937D938D939C931397FE0182
:1030E000EB5BFF4F0F2EF0E0EF2EF0E0FF2EF8E449
:1030F0000F2FF2E41F2FF02DE082F1820283138361
:10310000C201BF010E94CF1449E4442E512C4C0E41
:103110005D1E6091C4027091C5028091C6029091BB
:10312000C70220E030E04AE753E40E947122F20136
:103130006083718382839383FE01E35BFF4FE082B0
:10314000F18202831383C201BF010E94CF1420E0E9
:1031500030E040E050E02093C4023093C502409339
:10316000C6025093C702A092CC02B092CD02C09288
:10317000CE02D092CF02DE01AF5ABF4F20E030E046
:1031800040E85FE32D933D934D935C931397FE01CD
:10319000EB5AFF4FA082B182C282D382CD01BF0120
:1031A0000E94CF148E01075A1F4F6091C402709184
:1031B000C5028091C6029091C70220E030E040E055
:1031C00050E40E947122D8016D937D938D939C935E
:1031D0001397FE01E35AFF4FA082B182C282D382CD
:1031E000C801BF010E94CF1420E030E040E050E071
:1031F0002093C4023093C5024093C6025093C70285
:103200006092CC027092CD028092CE029092CF0258
:10321000CEC29091B8028091B702981709F0B2C25D
:10322000E091B802F0E0EE0FFF1FE155FD4F019075
:10323000F081E02DE655FF4F8081882309F0A2C27E
:1032400080917D0390917E038531910509F48DC0B5
:10325000863191053CF48430910589F0449709F05A
:10326000EAC024C08B35910509F4D8C08C3591058E
:1032700009F4D7C08A35910509F0DDC0CBC0609153
:10328000830370918403809185039091860320E0ED
:1032900030E040E05FE30E9472220E9442238827D0
:1032A00077FD8095982F0E94A61DDFC02FEAE22EA1
:1032B00022E0F22E0F2EFDE9AF2EF1E3BF2EFFE745
:1032C000CF2EF3E4DF2EF02D0F2EF6E82F2EFFEB9E
:1032D0003F2EFFE94F2EF6E45F2EF02D0F2EF0E08B
:1032E0006F2EF0E07F2EF0E88F2EFFE39F2EF02D63
:1032F000D7010D911D917D01F8011082D801119621
:10330000AD92BD92CD92DC921497A582B682C7820F
:10331000D08619962D923D924D925C921C97E09129
:10332000AE02F0E0EE0FFF1FE455FD4F0190F0817B
:10333000E02D668177818085918523E333E34BEC33
:1033400051E40E942924F801658776878787908B4E
:10335000D80151966D927D928D929C925497B7EBC5
:10336000EB16B2E0FB0621F680C04FEA52E061E0C6
:103370000F2EF3E8EF2EF0ECFF2EF0E20F2FF1E42A
:103380001F2FF02D0F2EFCEE6F2EF1E47F2EF9E4AF
:103390008F2EF4E49F2EF02D0F2EF0E0AF2EF0E0F4
:1033A000BF2EF0E8CF2EFFE3DF2EF02DFA012191A2
:1033B0003191AF01D9016C93F901E182F28203836B
:1033C00014831596ED92FD920D931C9318976186C8
:1033D000728683869486E091AE02F0E0EE0FFF1FC6
:1033E000E455FD4F0190F081E02D86819781A08505
:1033F000B185F90185879687A787B08BD90151964A
:10340000AD92BD92CD92DC925497B2E0473B5B0700
:1034100069F62BC081E08093A50227C01092A50217
:1034200024C0ACEBB2E0E3E5F3E084E101900D925F
:103430008150E1F71AC08091A20282FF16C08EEA85
:1034400097E060E672E00E944B1F40917D0350912F
:103450007E03662757FD6095762F8EEA97E02AE077
:1034600030E00E946D200E94CC0380917B0381FF9D
:1034700069C19091B8028091B702981709F089C18B
:10348000E091B802F0E0EE0FFF1FE155FD4F019013
:10349000F081E02DE655FF4F8081882309F079C146
:1034A00080917F03909180038E36910509F49CC032
:1034B0008F369105C4F48936910509F454C08A36D3
:1034C000910544F4009709F43DC18836910509F04F
:1034D0001FC126C08C3691050CF434C18D36910580
:1034E00009F016C157C08137910509F42BC1823705
:1034F00091054CF48F36910509F495C080379105FC
:1035000009F006C10AC08237910509F4B8C08E5788
:103510009040029708F0FCC015C102E310E098C08B
:1035200080917B0390917C0392FF0CC1E091AE02ED
:10353000F0E0EE0FFF1FE455FD4F00811181609117
:10354000A3037091A4038091A5039091A6030E9408
:1035500042239B01AC01F80177876687C801B90156
:103560000E94F90DEFC08EEA97E067E672E00E94D4
:103570004B1FE091AE02F0E0EE0FFF1FE455FD4F50
:10358000808191810E94E20CBC018EEA97E00E944A
:103590004820D8C0E091AE02F0E0EE0FFF1FE455E6
:1035A000FD4F008111816091A3037091A40380916C
:1035B000A5039091A6030E9442239B01AC01D80170
:1035C0001F967C936E931E97C801B9010E94F90D56
:1035D000E091AE02F0E0EE0FFF1FE455FD4F808159
:1035E00091810E94440FAEC080917B0387FFAAC0E7
:1035F0008091B1039091B203A091B303B091B40351
:103600008093B5039093B603A093B703B093B80328
:103610008091A20281FF96C08EEA97E06AE672E08E
:103620000E947A1F8FC06091A3037091A4038091C0
:10363000A5039091A6030E9447236093A20282C033
:103640000E94DE0662E370E080E090E00E94A61D2A
:1036500001501040BFEF0F3F1B0791F78091B70259
:103660008093B8020FEA12E0F801819191918F01E5
:103670000E944806F2E0073B1F07B1F763C08EEADD
:1036800097E06BE772E00E944B1F4091BC025091A3
:10369000BD026091BE027091BF028EEA97E00E9467
:1036A000FF208EEA97E060E872E00E944B1F409195
:1036B000C0025091C1026091C2027091C3028EEAB1
:1036C00097E00E94FF208EEA97E063E872E00E9494
:1036D0004B1F4091C4025091C5026091C602709187
:1036E000C7028EEA97E00E94FF208EEA97E066E824
:1036F00072E00E944B1F4091C8025091C902609134
:10370000CA027091CB028EEA97E00E9403211AC090
:103710008091A20282FF16C08EEA97E069E872E00B
:103720000E944B1F40917F0350918003662757FDF5
:103730006095762F8EEA97E02AE030E00E946D20B7
:103740000E94CC0380917B0390917C0396FF2FC055
:103750009091B8028091B702981711F5E091B802E4
:10376000F0E0EE0FFF1FE155FD4F0190F081E02DDD
:10377000E655FF4F8081882399F4809181030E9450
:10378000130315C061E070E080E090E00E94A61D88
:1037900040CD61E070E080E090E00E94A61D69CE1F
:1037A00061E070E080E090E00E94A61DD1CFC05A99
:1037B000DF4F0FB6F894DEBF0FBECDBFCF91DF91C4
:1037C0001F910F91FF90EF90DF90CF90BF90AF903F
:1037D0009F908F907F906F905F904F903F902F9031
:1037E00008958EEA97E00E94411F882331F18EEA06
:1037F00097E00E943C1F8093A1020E94DE06809108
:10380000A1028D3019F48AE08093A1029091A10267
:1038100090329CF09B3319F481E0809352038091A5
:103820005203882351F480915103E82FF0E0EF52C6
:10383000FD4F90838F5F809351038091510387FFE9
:1038400004C01092510310925203E0915103EE23F1
:1038500049F18091A1028A3029F5F0E0EF52FD4F45
:1038600010828091A20280FF0CC08EEA97E060E98E
:1038700072E00E944B1F8EEA97E061ED72E00E94B9
:103880007A1F6091510381ED92E070E00E94FC1478
:1038900010925103109252038EEA97E066E972E0AB
:1038A0000E947A1F08951092D0028091D6039091C1
:1038B000D703A091D803B091D9030196A11DB11DE2
:1038C0008093D6039093D703A093D803B093D903E2
:1038D000815D9740A040B04044F01092D603109212
:1038E000D7031092D8031092D9030E94F11B0895B8
:1038F000AF92BF92CF92DF92EF92FF920F931F93FE
:10390000CF93DF931092D00280916F008D7F8093D0
:103910006F000E943C021092BB021092BA0280E03B
:1039200061E00E946D1E1092B9028FEF9FEFAFEF22
:10393000BFEF8093B5039093B603A093B703B09302
:10394000B80389EB93E09093AD028093AC021092A0
:10395000AE021092B7021092B80286EF94E09093F4
:10396000B0028093AF0281EA95E09093B202809317
:10397000B1028CE496E09093B4028093B30287EF97
:1039800096E09093B6028093B502CFEAD2E061E070
:1039900023E830EC40E251E40F2EFCEEAF2EF1E4D0
:1039A000BF2EF9E4CF2EF4E4DF2EF02D0F2EF0E041
:1039B000EF2EF0E0FF2EF0E80F2FFFE31F2FF02D8A
:1039C000E991F99160832183328343835483258372
:1039D000368347835087A186B286C386D48680917A
:1039E000BF039091C003A091C103B091C20385872A
:1039F0009687A787B08BE18AF28A038B148B82E0CB
:103A0000C73BD807E9F610925103109252038EEA91
:103A100097E040E05BE460E070E00E94461F8EEAC1
:103A200097E069E972E00E944B1F8EEA97E00E94DE
:103A3000631F68EE73E080E090E00E94BA0280911C
:103A40006F00826080936F00DF91CF911F910F9183
:103A5000FF90EF90DF90CF90BF90AF9008950E94BD
:103A6000DE1D0E94781C0E94531CFDCF1F920F92F6
:103A70000FB60F9211242F938F939F93AF93BF9301
:103A80008091A2079091A307A091A407B091A507E8
:103A90000196A11DB11D8093A2079093A307A09347
:103AA000A407B093A5078091A6079091A707A091BE
:103AB000A807B091A9078050904CAF4FBF4F80939B
:103AC000A6079093A707A093A807B093A90727C0BC
:103AD0008091A6079091A707A091A807B091A90788
:103AE00080589E43A040B0408093A6079093A707BC
:103AF000A093A807B093A9078091AA079091AB075C
:103B0000A091AC07B091AD070196A11DB11D8093A6
:103B1000AA079093AB07A093AC07B093AD07809131
:103B2000A6079091A707A091A807B091A90781586F
:103B30009E43A040B04060F6BF91AF919F918F919E
:103B40002F910F900FBE0F901F901895EF92FF923C
:103B50000F931F937B018C018FB7F8944091AA07B4
:103B60005091AB076091AC077091AD078FBF2FB735
:103B7000F8948091AA079091AB07A091AC07B091FF
:103B8000AD072FBF841B950BA60BB70BE816F906E4
:103B90000A071B0760F71F910F91FF90EF900895A0
:103BA000019759F0FC01EE0FFF1FEE0FFF1F329738
:103BB0008FB7F8943197F1F78FBF0895789484B553
:103BC000826084BD84B5816084BD85B5826085BD19
:103BD00085B5816085BDEEE6F0E0808181608083FF
:103BE000E1E8F0E080818260808380818160808371
:103BF000E0E8F0E0808181608083E1EBF0E08081AB
:103C000084608083E0EBF0E0808181608083EAE77C
:103C1000F0E0808184608083808182608083808105
:103C2000816080838081806880831092C1000895C4
:103C30001F93CF93DF93182FEB0161E00E946D1E5D
:103C4000E12FF0E0E553FF4F8491833051F48091F0
:103C50008000806880938000D0938900C0938800A2
:103C600038C0843051F4809180008062809380005D
:103C7000D0938B00C0938A002CC0813029F484B586
:103C8000806884BDC7BD25C0823029F484B58062B8
:103C900084BDC8BD1EC0863041F48091B0008068EC
:103CA0008093B000C093B30014C0873041F480917A
:103CB000B00080628093B000C093B4000AC0C038E6
:103CC000D1051CF4812F60E002C0812F61E00E94C9
:103CD0008B1EDF91CF911F910895282F30E0C901ED
:103CE00085559F4FFC01949125573F4FF9018491D1
:103CF000882381F0E82FF0E0E458FF4FE491F0E0F2
:103D0000662329F48081909589238083089580819A
:103D1000892B80830895482F50E0CA0185539F4F17
:103D2000FC012491CA0185559F4FFC019491455790
:103D30005F4FFA0134913323C1F1222331F1213055
:103D400019F484B58F7704C0223021F484B58F7DB7
:103D500084BD1BC0233021F4809180008F7705C083
:103D6000243031F4809180008F7D809380000DC0DD
:103D7000263021F48091B0008F7705C0273029F4D8
:103D80008091B0008F7D8093B000E32FF0E0EF577B
:103D9000FF4FE491F0E0662329F480819095892318
:103DA000808308958081892B80830895482F50E077
:103DB000CA0185539F4FFC012491CA0185559F4F2D
:103DC000FC01949145575F4FFA013491332319F464
:103DD00020E030E035C0222331F1213019F484B5E0
:103DE0008F7704C0223021F484B58F7D84BD1BC041
:103DF000233021F4809180008F7705C0243031F486
:103E0000809180008F7D809380000DC0263021F44A
:103E10008091B0008F7705C0273029F48091B000E1
:103E20008F7D8093B000E32FF0E0EA57FF4FE491DD
:103E3000F0E0808120E030E0892311F021E030E0E3
:103E4000C90108958AEA92E09093AF078093AE0784
:103E50001092B0079093B2078093B10781E08093EE
:103E6000B3070895FC0182810E9496210895FC0108
:103E700082810E94E9210895FC0182810E94BC2177
:103E80000895FC0182810E94A6210895FC0182818F
:103E90000E940E2108950F931F93CF93DF938C01FF
:103EA000EB0109C02196D801ED91FC910190F081C0
:103EB000E02DC801099568816623A1F7DF91CF91B4
:103EC0001F910F9108950F931F938C01DC01ED91C9
:103ED000FC910190F081E02D6DE00995D801ED9104
:103EE000FC910190F081E02DC8016AE009951F91D5
:103EF0000F9108950F931F938C010E944B1FC801CF
:103F00000E94631F1F910F9108952F923F924F922D
:103F10005F926F927F928F929F92AF92BF92CF9259
:103F2000DF92EF92FF920F931F93DF93CF93CDB762
:103F3000DEB7A0970FB6F894DEBF0FBECDBF1C0151
:103F40006A017B01411551056105710549F4DC01E8
:103F5000ED91FC910190F081E02D60E3099554C052
:103F6000882499245401422E55246624772401E0A4
:103F700010E00C0F1D1F080D191DC701B601A3018C
:103F800092010E941525F80160830894811C911C00
:103F9000A11CB11CC701B601A30192010E94152505
:103FA000C901DA016C017D01C114D104E104F104FD
:103FB000F1F681E0E82EF12CEC0EFD1EE80CF91C68
:103FC0003E010894611C711CD501C4010197A1092F
:103FD000B1096C01C818D90814C0F601EE0DFF1D17
:103FE00060816A3010F4605D01C0695CD101ED91BF
:103FF000FC910190F081E02DC10109950894E10840
:10400000F1086E147F0449F7A0960FB6F894DEBF4E
:104010000FBECDBFCF91DF911F910F91FF90EF9019
:10402000DF90CF90BF90AF909F908F907F906F90D8
:104030005F904F903F902F9008952AE00E94851F37
:104040000895EF92FF920F931F93CF93DF93EC01AC
:104050007A018B0177FF0FC0E881F9810190F0812F
:10406000E02D6DE2099510950095F094E094E11C27
:10407000F11C011D111DCE01B801A7012AE00E940B
:10408000851FDF91CF911F910F91FF90EF900895C1
:104090000F931F938C01AB01662757FD6095762F18
:1040A0000E942120C8010E94631F1F910F91089553
:1040B000DC012115310541F4ED91FC910190F08175
:1040C000E02D642F099508952A30310519F40E94D6
:1040D000212008950E94851F08950F931F938C013E
:1040E0000E945820C8010E94631F1F910F910895DC
:1040F0009F92AF92BF92CF92DF92EF92FF920F9377
:104100001F93CF93DF93EC017A018B01922ECB01A9
:10411000BA0120E030E040E050E00E94D62288233F
:1041200064F4E881F9810190F081E02DCE016DE227
:10413000099517FB109517F9109520E030E040E045
:104140005FE3AA240BC0CA01B90120E030E040E2DD
:1041500051E40E94DA229B01AC01A394A91498F3C4
:10416000C801B7010E9472225B016C010E944723C3
:104170007B018C01CE01B801A7010E941D2099206E
:1041800029F0CE016FE972E00E944B1FC801B70110
:104190000E9473239B01AC01C601B5010E947122EC
:1041A00020C020E030E040E251E40E9429247B015D
:1041B0008C010E9442235B016C01CC24B7FCC094AB
:1041C000DC2CCE01B601A5010E942120C601B5015B
:1041D0000E9475239B01AC01C801B7010E947122A6
:1041E0009A949920F1F6DF91CF911F910F91FF9052
:1041F000EF90DF90CF90BF90AF909F90089522E016
:104200000E94782008950F931F938C010E94FF2035
:10421000C8010E94631F1F910F910895EF92FF92B2
:104220000F931F937A018B018823F1F5CB01BA011B
:1042300022E030E040E050E00E943725205C3D4B1A
:10424000404F5F4FCA01B901A80197010E9437256D
:10425000C901DA010197A109B109292F3A2F4B2F82
:10426000552747FD5A950196A11DB11D2093C50004
:1042700081508093C4001092C0001092C10010922F
:10428000C2008091C10080618093C1008091C10013
:1042900088608093C1008091C10080688093C100D4
:1042A00086E08093C2003DC0CB01BA0122E030E03D
:1042B00040E050E00E943725205C3D4B404F5F4F6F
:1042C000CA01B901A80197010E943725C901DA0185
:1042D0000197A109B109292F3A2F4B2F552747FDE7
:1042E0005A950196A11DB11D2093CD008150809358
:1042F000CC001092C8001092C9001092CA008091A0
:10430000C90080618093C9008091C9008860809352
:10431000C9008091C90080688093C90086E08093BD
:10432000CA001F910F91FF90EF900895882339F4F0
:104330008091C00085FFFCCF6093C60008958091F6
:10434000C80085FFFCCF6093CE000895E82FF0E011
:10435000EE0FFF1FDF01AC54B84F8D919C91805838
:104360009F4FE854F84F20813181821B930B60E806
:1043700070E00E9402250895CF93DF93A82FB0E04C
:10438000FD01EE0FFF1FEF01C854D84F488159813E
:10439000EC54F84F808191818417950719F42FEF21
:1043A0003FEF13C0B695BA2FAA27B795A795A40FCC
:1043B000B51FA454B84F2C91CA01019660E870E073
:1043C0000E9402259983888330E0C901DF91CF9153
:1043D0000895E82FF0E0EE0FFF1FDF01A854B84F5B
:1043E0008D919C91EC54F84F9183808308951F9296
:1043F0000F920FB60F9211242F933F934F935F9319
:104400006F937F938F939F93AF93BF93EF93FF939C
:104410004091C600E091B407F091B507CF01019635
:1044200060E870E00E9402259C018091B80790919D
:10443000B9072817390739F0E454F84F408330930F
:10444000B5072093B407FF91EF91BF91AF919F9172
:104450008F917F916F915F914F913F912F910F902D
:104460000FBE0F901F9018951F920F920FB60F92CC
:1044700011242F933F934F935F936F937F938F9369
:104480009F93AF93BF93EF93FF934091CE00E09142
:10449000B607F091B707CF01019660E870E00E947F
:1044A00002259C018091BA079091BB072817390714
:1044B00039F0E45CF74F40833093B7072093B60799
:1044C000FF91EF91BF91AF919F918F917F916F91EC
:1044D0005F914F913F912F910F900FBE0F901F90C2
:1044E00018955058BB27AA270ED075C166D130F059
:1044F0006BD120F031F49F3F11F41EF45BC10EF438
:10450000E095E7FB51C1E92F77D180F3BA17620735
:1045100073078407950718F071F49EF58FC10EF4A8
:10452000E0950B2EBA2FA02D0B01B90190010C01C3
:10453000CA01A0011124FF27591B99F0593F50F4DB
:10454000503E68F11A16F040A22F232F342F442733
:10455000585FF3CF469537952795A795F04053952B
:10456000C9F77EF41F16BA0B620B730B840BBAF0FB
:104570009150A1F0FF0FBB1F661F771F881FC2F766
:104580000EC0BA0F621F731F841F48F4879577957A
:104590006795B795F7959E3F08F0B3CF9395880F31
:1045A00008F09927EE0F979587950895D9D008F4CC
:1045B00081E008950CD00FC107D140F0FED030F05B
:1045C00021F45F3F19F0F0C0511139C1F3C014D18B
:1045D00098F39923C9F35523B1F3951B550BBB27CA
:1045E000AA2762177307840738F09F5F5F4F220F77
:1045F000331F441FAA1FA9F333D00E2E3AF0E0E870
:1046000030D091505040E695001CCAF729D0FE2FBB
:1046100027D0660F771F881FBB1F2617370748074D
:10462000AB07B0E809F0BB0B802DBF01FF27935803
:104630005F4F2AF09E3F510568F0B6C000C15F3F52
:10464000ECF3983EDCF3869577956795B795F795EB
:104650009F5FC9F7880F911D9695879597F90895E3
:10466000E1E0660F771F881FBB1F6217730784077F
:10467000BA0720F0621B730B840BBA0BEE1F88F78E
:10468000E095089504D06894B111D9C00895BCD0C4
:1046900088F09F5790F0B92F9927B751A0F0D1F02B
:1046A000660F771F881F991F1AF0BA95C9F712C0B5
:1046B000B13081F0C3D0B1E00895C0C0672F782F2A
:1046C0008827B85F39F0B93FCCF386957795679521
:1046D000B395D9F73EF490958095709561957F4F8D
:1046E0008F4F9F4F0895E89409C097FB3EF4909533
:1046F0008095709561957F4F8F4F9F4F9923A9F0BB
:10470000F92F96E9BB279395F69587957795679549
:10471000B795F111F8CFFAF4BB0F11F460FF1BC08D
:104720006F5F7F4F8F4F9F4F16C0882311F096E920
:1047300011C0772321F09EE8872F762F05C06623CE
:1047400071F096E8862F70E060E02AF09A95660F87
:10475000771F881FDAF7880F9695879597F9089540
:10476000990F0008550FAA0BE0E8FEEF1616170682
:10477000E807F907C0F012161306E407F50798F0EA
:10478000621B730B840B950B39F40A2661F0232B03
:10479000242B252B21F408950A2609F4A140A6957F
:1047A0008FEF811D811D089597F99F6780E870E064
:1047B00060E008959FEF80EC089500240A94161697
:1047C000170618060906089500240A9412161306FF
:1047D000140605060895092E0394000C11F488238D
:1047E00052F0BB0F40F4BF2B11F460FF04C06F5FA9
:1047F0007F4F8F4F9F4F089557FD9058440F551F7F
:1048000059F05F3F71F04795880F97FB991F61F052
:104810009F3F79F087950895121613061406551FC9
:10482000F2CF4695F1DF08C0161617061806991F35
:10483000F1CF86957105610508940895E894BB272A
:1048400066277727CB0197F908958ADF08F48FEF61
:1048500008950BD0C0CFB1DF28F0B6DF18F0952354
:1048600009F0A2CFA7CF1124EACFC6DFA0F3959F0E
:10487000D1F3950F50E0551F629FF001729FBB2747
:10488000F00DB11D639FAA27F00DB11DAA1F649FF3
:104890006627B00DA11D661F829F2227B00DA11DA6
:1048A000621F739FB00DA11D621F839FA00D611D2C
:1048B000221F749F3327A00D611D231F849F600D4D
:1048C000211D822F762F6A2F11249F5750408AF086
:1048D000E1F088234AF0EE0FFF1FBB1F661F771F12
:1048E000881F91505040A9F79E3F510570F05CCF52
:1048F000A6CF5F3FECF3983EDCF3869577956795FE
:10490000B795F795E7959F5FC1F7FE2B880F911D2F
:104910009695879597F9089511F40EF44BCF3EC004
:1049200073DFD0F39923D9F3CEF39F57550B87FF4D
:1049300043D00024A0E640EA900180585695979510
:1049400028F4805C660F771F881F20F02617370732
:10495000480730F4621B730B840B202931294A2B42
:10496000A69517940794202531254A2758F7660FF6
:10497000771F881F20F026173707480730F4620B8F
:10498000730B840B200D311D411DA09581F7B901DA
:10499000842F9158880F9695879508959F3F31F001
:1049A000915020F4879577956795B795880F911D5D
:1049B0009695879597F9089591505040660F771F07
:1049C000881FD2F70895629FD001739FF001829FE4
:1049D000E00DF11D649FE00DF11D929FF00D839F8E
:1049E000F00D749FF00D659FF00D9927729FB00D2B
:1049F000E11DF91F639FB00DE11DF91FBD01CF013E
:104A00001124089597FB092E07260AD077FD04D0BC
:104A100049D006D000201AF4709561957F4F089513
:104A2000F6F7909581959F4F0895A1E21A2EAA1B43
:104A3000BB1BFD010DC0AA1FBB1FEE1FFF1FA2174E
:104A4000B307E407F50720F0A21BB30BE40BF50B4B
:104A5000661F771F881F991F1A9469F760957095D4
:104A6000809590959B01AC01BD01CF01089597FB06
:104A7000092E05260ED057FD04D0D7DF0AD0001C22
:104A800038F450954095309521953F4F4F4F5F4FEB
:104A90000895F6F790958095709561957F4F8F4FAB
:104AA0009F4F0895AA1BBB1B51E107C0AA1FBB1F44
:104AB000A617B70710F0A61BB70B881F991F5A95AA
:104AC000A9F780959095BC01CD010895EE0FFF1FC9
:104AD0000590F491E02D0994A0E0B0E0E2E7F5E262
:104AE0000C946F28EC015B016115710519F0FB0155
:104AF00091838083F9908F2D90E00E94FB27892B72
:104B0000C9F7FDE2FF1621F4F990EE24E39405C005
:104B10002BE2F21609F4F990EE248E0101501040B8
:104B2000C8016BEE70E043E050E00E940328892B3F
:104B300001F58E010E5F1F4FC8016EEE70E045E07B
:104B400050E00E940328892B19F48E01095F1F4F42
:104B5000A114B10419F0F50111830083E0FC04C035
:104B600070E090E080E814C070E090E080E86FEFC3
:104B700008C1C80163EF70E043E050E00E940328E1
:104B8000892B69F4A114B10429F470E090E080EC61
:104B90006FE7F7C02296F501D183C083F6CF882452
:104BA000992440E050E060E070E0EF2DE053EA30FF
:104BB000A0F5F2E0EF2A8E2D90E09C012870307075
:104BC000E2FE06C0232B79F50894811C911C2BC0B2
:104BD000232B19F0089481089108DB01CA0112E027
:104BE000880F991FAA1FBB1F1A95D1F7480F591F8D
:104BF0006A1F7B1F440F551F661F771F4E0F511DE5
:104C0000611D711D483929E9520729E9620729E127
:104C1000720748F084E0E82A06C0EE3F31F4E3FC76
:104C200039C098E0E92AF990C0CFE53311F0E531B9
:104C300089F529912D3219F4E0E1EE2A05C02B32D5
:104C400019F081E090E003C0299182E090E0E22F2A
:104C5000E053EA3018F0C81BD90B1CC020E030E04C
:104C6000FCE020383F075CF4C901880F991F880FCA
:104C7000991F280F391F220F331F2E0F311DE99165
:104C8000E053EA3068F3E4FE03C0309521953F4FCE
:104C9000820E931ECE2CDD24E1FE07C0A114B104C8
:104CA00021F02197F501D183C083CB01BA010E9485
:104CB00073237B018C01F3E0CF22DD2423E0C216B5
:104CC000D10421F417FB109517F9109557016801CD
:104CD000C801B70120E030E040E050E00E94D62259
:104CE000882309F44AC097FE0DC02AE0E22E21E095
:104CF000F22E9094819491089394C0E2D0E000E069
:104D000010E012C092E2E92E91E0F92EF6CFF70101
:104D10002591359145915491C601B5010E942924F0
:104D20005B016C018C1A9D0A8C169D0684F7D59543
:104D3000C7950F5F1F4F0630110529F08CEF9FEFCD
:104D4000E80EF91EF1CFC501D6017C018D018C2D35
:104D5000880F8D2D881F8F3F51F0C601B50120E0CF
:104D600030E040E050E00E94D622882331F482E215
:104D700090E09093BD088093BC087E2D9F2D802FDE
:104D8000612F272F392F482F562FB901CA01CDB7D0
:104D9000DEB7ECE00C948B282F923F925F926F92DB
:104DA0007F928F929F92AF92BF92CF92DF92EF92BB
:104DB000FF920F931F93CF93DF938C011B01EA01A6
:104DC0006115710519F0FB0191838083209749F0EB
:104DD000CE010297839728F020E030E040E050E0D9
:104DE000F6C0F801A1908F018A2D90E00E94FB2768
:104DF000892BB9F7FDE2AF1631F4F801A1908F01CC
:104E00005524539407C0FBE2AF1619F4F801A190A2
:104E10008F015524209719F0C031D105C1F4F0E37A
:104E2000AF1679F4F8018081883711F0883549F49C
:104E3000F801A1800E5F1F4FF2E05F2AC0E1D0E0D1
:104E400006C0209721F480E3A816E9F427C0C830F3
:104E5000D10531F1C930D10524F4C230D10531F585
:104E60000CC0CA30D10589F0C031D105F9F4C12C8C
:104E7000D12CE12CB8E0FB2E28C0C12CD12CE12C88
:104E8000A0E4FA2E22C0CAE0D0E0FCECCF2EFCEC6D
:104E9000DF2EFCECEF2EFCE0FF2E17C0C8E0D0E0C8
:104EA000C12CD12CE12CE0E1FE2E0FC09E01442745
:104EB00037FD4095542F60E070E080E090E80E945C
:104EC0001525C901DA016C017D0120E030E040E0E8
:104ED00050E060E03E01882477FC8094982C70EDCF
:104EE000B72EBA0CE9E0EB1570F48A2D81548A31A3
:104EF00018F499ECB92E06C08A2D81568A3150F5E6
:104F000089EAB82EBA0C8B2D90E08C179D0714F50A
:104F10006F3FE1F0C216D306E406F506B0F0CA0111
:104F2000B901A40193010E94E3249B01AC012B0D64
:104F3000311D411D511D2130F0E03F07F0E04F07CA
:104F4000F0E85F0710F461E001C06FEFF801A19095
:104F50008F01C5CF2114310481F0662331F0015057
:104F60001040F1011183008308C051FE1AC00250A5
:104F70001040F1011183008314C067FF12C050FC80
:104F800005C02FEF3FEF4FEF5FE704C020E030E0B8
:104F900040E050E882E290E09093BD088093BC0826
:104FA00016C050FE08C050954095309521953F4F52
:104FB0004F4F5F4F0CC057FF0AC082E290E09093C2
:104FC000BD088093BC082FEF3FEF4FEF5FE7B901BB
:104FD000CA01DF91CF911F910F91FF90EF90DF9069
:104FE000CF90BF90AF909F908F907F906F905F9089
:104FF0003F902F900895911159C0803219F0895037
:105000008550D0F70895FB01DC014150504088F0F5
:105010008D9181341CF08B350CF4805E6591613488
:105020001CF06B350CF4605E861B611171F3990BFB
:105030000895881BFCCFFB01DC0101900D9200203C
:10504000E1F70895FA01CF93FF93EF93223044F1F3
:10505000253234F5C22FE894CA3049F497FB3EF468
:1050600090958095709561957F4F8F4F9F4F2C2F16
:10507000332744275527FF93EF930E941525EF917F
:10508000FF91605D6A330CF0695D6193B901CA01FB
:10509000605070408040904051F716F4CDE2C193CB
:1050A00010828F919F91CF910C945928992788272E
:1050B0000895DC01FC01672F71917723E1F73297A6
:1050C00004C07C916D9370836291AE17BF07C8F3E3
:1050D00008952F923F924F925F926F927F928F929C
:1050E0009F92AF92BF92CF92DF92EF92FF920F9377
:1050F0001F93CF93DF93CDB7DEB7CA1BDB0B0FB681
:10510000F894DEBF0FBECDBF09942A88398848883D
:105110005F846E847D848C849B84AA84B984C884D3
:10512000DF80EE80FD800C811B81AA81B981CE0FCA
:10513000D11D0FB6F894DEBF0FBECDBFED010895AF
:04514000F894FFCF11
:10514400526573656E643A000000000000000000C0
:10515400000000000000000000000000000000004B
:10516400000000000000000000000000000000003B
:10517400000000000000000000000000000000002B
:10518400000000000000000000000000000000001B
:10519400000000000000000000000000000000000B
:1051A4000000000045787472756465722074656D42
:1051B4007065726174757265206E6F7420726973A4
:1051C400696E67202D2068617264206661756C7455
:1051D4002E004265642074656D7065726174757229
:1051E40065206E6F7420726973696E67202D206864
:1051F400617264206661756C742E00536572696116
:105204006C204572726F723A5265636965766564A3
:105214002061204C696E654E7220636F646520774F
:105224006974686F7574206120436865636B737576
:105234006D20636F6465206F7220436865636B73D0
:10524400756D20776974686F7574204C696E654E4E
:10525400720053657269616C204572726F723A20F4
:10526400636865636B73756D206D69736D617463D9
:10527400680053657269616C204572726F723A20DE
:105284004C696E654E72206973206E6F7420746869
:1052940065206C617374206C696E654E722B3100ED
:1052A4006875683F204700543A0044454255473AE0
:1052B4004C696E654E722073657400433A20580041
:1052C400205900205A002045004875683F204D00B1
:1052D4004563686F3A006F6B007374617274002EDB
:0C52E400003F06FFFF0100000000321F29
:00000001FF
